{
  "contractName": "GaslessTransaction",
  "abi": [
    {
      "anonymous": false,
      "inputs": [
        {
          "indexed": true,
          "internalType": "address",
          "name": "sender",
          "type": "address"
        },
        {
          "indexed": false,
          "internalType": "address",
          "name": "recipient",
          "type": "address"
        },
        {
          "indexed": false,
          "internalType": "uint256",
          "name": "amount",
          "type": "uint256"
        }
      ],
      "name": "TransactionExecuted",
      "type": "event"
    },
    {
      "inputs": [
        {
          "internalType": "address",
          "name": "",
          "type": "address"
        }
      ],
      "name": "nonces",
      "outputs": [
        {
          "internalType": "uint256",
          "name": "",
          "type": "uint256"
        }
      ],
      "stateMutability": "view",
      "type": "function"
    },
    {
      "stateMutability": "payable",
      "type": "receive"
    },
    {
      "inputs": [
        {
          "internalType": "address",
          "name": "sender",
          "type": "address"
        },
        {
          "internalType": "address",
          "name": "recipient",
          "type": "address"
        },
        {
          "internalType": "uint256",
          "name": "amount",
          "type": "uint256"
        },
        {
          "internalType": "uint256",
          "name": "nonce",
          "type": "uint256"
        },
        {
          "internalType": "bytes",
          "name": "signature",
          "type": "bytes"
        }
      ],
      "name": "executeGaslessTransaction",
      "outputs": [],
      "stateMutability": "nonpayable",
      "type": "function"
    }
  ],
  "bytecode": "0x608060405234801561000f575f80fd5b50610b688061001d5f395ff3fe60806040526004361061002c575f3560e01c80637ecebe0014610037578063dda9745b1461007357610033565b3661003357005b5f80fd5b348015610042575f80fd5b5061005d6004803603810190610058919061048e565b61009b565b60405161006a91906104d1565b60405180910390f35b34801561007e575f80fd5b5061009960048036038101906100949190610650565b6100af565b005b5f602052805f5260405f205f915090505481565b5f808673ffffffffffffffffffffffffffffffffffffffff1673ffffffffffffffffffffffffffffffffffffffff1681526020019081526020015f2054821461012d576040517f08c379a00000000000000000000000000000000000000000000000000000000081526004016101249061073d565b60405180910390fd5b5f8585858560405160200161014594939291906107c0565b6040516020818303038152906040528051906020012090505f610167826102ce565b90508673ffffffffffffffffffffffffffffffffffffffff1661018a82856102fd565b73ffffffffffffffffffffffffffffffffffffffff16146101e0576040517f08c379a00000000000000000000000000000000000000000000000000000000081526004016101d790610857565b60405180910390fd5b5f808873ffffffffffffffffffffffffffffffffffffffff1673ffffffffffffffffffffffffffffffffffffffff1681526020019081526020015f205f81548092919061022c906108a2565b91905055508573ffffffffffffffffffffffffffffffffffffffff166108fc8690811502906040515f60405180830381858888f19350505050158015610274573d5f803e3d5ffd5b508673ffffffffffffffffffffffffffffffffffffffff167f508f3afa87f72dce865a2321107666b28ac822c23a8c0555fbeb3424cf3de56387876040516102bd9291906108f8565b60405180910390a250505050505050565b5f816040516020016102e0919061099c565b604051602081830303815290604052805190602001209050919050565b5f6041825114610342576040517f08c379a000000000000000000000000000000000000000000000000000000000815260040161033990610a0b565b60405180910390fd5b5f805f602085015192506040850151915060608501515f1a9050601b8160ff16101561037857601b816103759190610a35565b90505b601b8160ff16148061038d5750601c8160ff16145b6103cc576040517f08c379a00000000000000000000000000000000000000000000000000000000081526004016103c390610ab3565b60405180910390fd5b6001868285856040515f81526020016040526040516103ee9493929190610aef565b6020604051602081039080840390855afa15801561040e573d5f803e3d5ffd5b50505060206040510351935050505092915050565b5f604051905090565b5f80fd5b5f80fd5b5f73ffffffffffffffffffffffffffffffffffffffff82169050919050565b5f61045d82610434565b9050919050565b61046d81610453565b8114610477575f80fd5b50565b5f8135905061048881610464565b92915050565b5f602082840312156104a3576104a261042c565b5b5f6104b08482850161047a565b91505092915050565b5f819050919050565b6104cb816104b9565b82525050565b5f6020820190506104e45f8301846104c2565b92915050565b6104f3816104b9565b81146104fd575f80fd5b50565b5f8135905061050e816104ea565b92915050565b5f80fd5b5f80fd5b5f601f19601f8301169050919050565b7f4e487b71000000000000000000000000000000000000000000000000000000005f52604160045260245ffd5b6105628261051c565b810181811067ffffffffffffffff821117156105815761058061052c565b5b80604052505050565b5f610593610423565b905061059f8282610559565b919050565b5f67ffffffffffffffff8211156105be576105bd61052c565b5b6105c78261051c565b9050602081019050919050565b828183375f83830152505050565b5f6105f46105ef846105a4565b61058a565b9050828152602081018484840111156106105761060f610518565b5b61061b8482856105d4565b509392505050565b5f82601f83011261063757610636610514565b5b81356106478482602086016105e2565b91505092915050565b5f805f805f60a086880312156106695761066861042c565b5b5f6106768882890161047a565b95505060206106878882890161047a565b945050604061069888828901610500565b93505060606106a988828901610500565b925050608086013567ffffffffffffffff8111156106ca576106c9610430565b5b6106d688828901610623565b9150509295509295909350565b5f82825260208201905092915050565b7f496e76616c6964206e6f6e6365000000000000000000000000000000000000005f82015250565b5f610727600d836106e3565b9150610732826106f3565b602082019050919050565b5f6020820190508181035f8301526107548161071b565b9050919050565b5f8160601b9050919050565b5f6107718261075b565b9050919050565b5f61078282610767565b9050919050565b61079a61079582610453565b610778565b82525050565b5f819050919050565b6107ba6107b5826104b9565b6107a0565b82525050565b5f6107cb8287610789565b6014820191506107db8286610789565b6014820191506107eb82856107a9565b6020820191506107fb82846107a9565b60208201915081905095945050505050565b7f496e76616c6964207369676e61747572650000000000000000000000000000005f82015250565b5f6108416011836106e3565b915061084c8261080d565b602082019050919050565b5f6020820190508181035f83015261086e81610835565b9050919050565b7f4e487b71000000000000000000000000000000000000000000000000000000005f52601160045260245ffd5b5f6108ac826104b9565b91507fffffffffffffffffffffffffffffffffffffffffffffffffffffffffffffffff82036108de576108dd610875565b5b600182019050919050565b6108f281610453565b82525050565b5f60408201905061090b5f8301856108e9565b61091860208301846104c2565b9392505050565b5f81905092915050565b7f19457468657265756d205369676e6564204d6573736167653a0a3332000000005f82015250565b5f61095d601c8361091f565b915061096882610929565b601c82019050919050565b5f819050919050565b5f819050919050565b61099661099182610973565b61097c565b82525050565b5f6109a682610951565b91506109b28284610985565b60208201915081905092915050565b7f496e76616c6964207369676e6174757265206c656e67746800000000000000005f82015250565b5f6109f56018836106e3565b9150610a00826109c1565b602082019050919050565b5f6020820190508181035f830152610a22816109e9565b9050919050565b5f60ff82169050919050565b5f610a3f82610a29565b9150610a4a83610a29565b9250828201905060ff811115610a6357610a62610875565b5b92915050565b7f496e76616c6964207369676e61747572652076657273696f6e000000000000005f82015250565b5f610a9d6019836106e3565b9150610aa882610a69565b602082019050919050565b5f6020820190508181035f830152610aca81610a91565b9050919050565b610ada81610973565b82525050565b610ae981610a29565b82525050565b5f608082019050610b025f830187610ad1565b610b0f6020830186610ae0565b610b1c6040830185610ad1565b610b296060830184610ad1565b9594505050505056fea26469706673582212206937af72b9220bca25ca8293189f02e5d27d3c0feb2e0faa2748bae3339973b664736f6c63430008140033",
  "immutableReferences": {},
  "source": "// SPDX-License-Identifier: MIT\r\npragma solidity ^0.8.20;\r\n\r\ncontract GaslessTransaction {\r\n    mapping(address => uint256) public nonces;\r\n\r\n    event TransactionExecuted(address indexed sender, address recipient, uint256 amount);\r\n\r\n    function executeGaslessTransaction(\r\n        address sender,\r\n        address recipient,\r\n        uint256 amount,\r\n        uint256 nonce,\r\n        bytes memory signature\r\n    ) public {\r\n        require(nonce == nonces[sender], \"Invalid nonce\");\r\n\r\n        bytes32 messageHash = keccak256(abi.encodePacked(sender, recipient, amount, nonce));\r\n        bytes32 ethSignedMessageHash = prefixed(messageHash);\r\n\r\n        require(recoverSigner(ethSignedMessageHash, signature) == sender, \"Invalid signature\");\r\n\r\n        nonces[sender]++;\r\n        payable(recipient).transfer(amount);\r\n\r\n        emit TransactionExecuted(sender, recipient, amount);\r\n    }\r\n\r\n    function prefixed(bytes32 hash) internal pure returns (bytes32) {\r\n        return keccak256(abi.encodePacked(\"\\x19Ethereum Signed Message:\\n32\", hash));\r\n    }\r\n\r\n    function recoverSigner(bytes32 hash, bytes memory signature) internal pure returns (address) {\r\n        require(signature.length == 65, \"Invalid signature length\");\r\n\r\n        bytes32 r;\r\n        bytes32 s;\r\n        uint8 v;\r\n\r\n        assembly {\r\n            r := mload(add(signature, 32))\r\n            s := mload(add(signature, 64))\r\n            v := byte(0, mload(add(signature, 96)))\r\n        }\r\n\r\n        if (v < 27) {\r\n            v += 27;\r\n        }\r\n\r\n        require(v == 27 || v == 28, \"Invalid signature version\");\r\n\r\n        return ecrecover(hash, v, r, s);\r\n    }\r\n\r\n    receive() external payable {} // Allow contract to receive ETH\r\n}\r\n",
  "sourcePath": "C:\\Data\\code playground\\innovcon\\main\\newtest88\\gasless-tx-project\\backend\\contracts\\GaslessTransactions.sol",
  "compiler": {
    "name": "solc",
    "version": "0.8.20+commit.a1b79de6.Emscripten.clang"
  },
  "schemaVersion": "3.4.16",
  "updatedAt": "2025-02-27T18:41:53.059Z",
  "devdoc": {
    "kind": "dev",
    "methods": {},
    "version": 1
  },
  "userdoc": {
    "kind": "user",
    "methods": {},
    "version": 1
  }
}